:1003510012000312020D7F017E0012057CE535FDBE
:100361007C007F0112028E7F017E0012057CE52E4A
:10037100FD7C007F0212028E7F017E0012057CE56A
:1003810036FD7C007F0312028E7F017E0012057C08
:10039100E52FFD7C007F0412028E7F017E00120595
:0303A1007C80B0AD
:0605A500C2A58F80D2A761
:0805AB007F027EEFDEFEDFFCA3
:0105B3002225
:0A05B400C2A61205A5C2A70205ABFE
:10052B00CFCDCFCECCCE12012C7C007D0A12012C6C
:04053B00ED2430FF7C
:0A053F00D2A61205A5C2A70205AB63
:10056600AE07BE0104ED148006BE0209ED243F4429
:0605760080FF1205B42213
:100591007F381205B47F0C1205B47F061205B47FB3
:0405A100010205B49A
:0A05BE00AC03120566AF0402053F0E
:060508008B528A53895456
:10050E00120566E4FDAB52AA53A9548D8275830081
:0C051E001200EDFF600612053F0D80E9A1
:01052A0022AE
:0C04D5007F0AEA24FFFDE434FFFC7E00F7
:0804E1008E4E8F4F8C508D519F
:1004E9007F017E00E4FBEBC39551E5506480F8740D
:0E04F9008098500AAC4EAD4F12011A0B80E8ED
:0105070022D1
:040549008A418B4216
:10054D00120566AA43EAD39400400D1204D5AC41BE
:08055D00AD4212052B1A80EDDE
:010565002273
:1003F200120566C3EA64809480400B7F2B12053F8E
:100402008A3D8B3E800E7F2D12053FC3E49BF53E55
:10041200E49AF53DAA3CEAD39400400D1204D5AC0F
:090422003DAD3E12052B1A80EDE0
:01042B0022AE
:04042C008A468B472A
:10043000120566AA48EAD3940040297F101204D717
:10044000AC46AD47CFCDCFCECCCE12012CEF540F62
:10045000FEC3940AEE5004243080022437FF1205B4
:040460003F1A80D1EE
:010464002275
:040465008A4B8B4CE7
:10046900120566AA4DEAD394004028EA24FFFDE468
:1004790034FFFC7F027E001204E1AC4BAD4CCFCDC2
:10048900CFCECCCE12012CEF54012430FF12053F00
:030499001A80D2F4
:01049C00223D
:10049D000731130B100C3B3706072A130B100C3BBF
:0204AD00370610
:0505C800C2B5C2B6221D
:0602F40025F0FDEC3EFCCC
:0602FA008C558D56AB0788
:10030000D2B5E4FD74017E00A805088005C333CE94
:1003100033CED8F9FFEBF582EF558224FF92B4D2A9
:10032000B6C2B60DBD08DDE4FD74017E00A8050867
:100330008005C333CE33CED8F9FFE5555EFEE556D2
:100340005F4E24FF92B4D2B6C2B60DBD08DBC2B573
:01035000228A
:0203A400AD07A3
:1003A600E4F9430501D2B5FB74017E00A803088079
:1003B60005C333CE33CED8F9FFEDF582EF5582244F
:1003C600FF92B4C2B6D2B60BBB08DDE4FBD2B6C20E
:1003D600B630B40D7401A803088002C333D8FC42BA
:0B03E600010BBB08E8C2B5C2B4AF01B8
:0103F10022E9
:10000300E4FDFC7F8E1202FAE53175F00A8475F087
:1000130010A4FFAEF0E53175F00A84EF7F8C120275
:10002300F4E53275F00A8475F010A4FFAEF0E53202
:1000330075F00A847C00EF7F881202F4E53375F0D3
:100043000A8475F010A4FFAEF0E53375F00A847CE2
:1000530000EF25F0FDEC3EFC7F861202FAE53475D5
:10006300F00A8475F010A4FFAEF0E53475F00A844D
:100073007C00EF25F0FDEC3EFC7F841202FAE535AF
:1000830075F00A8475F010A4FFAEF0E53575F00A3B
:10009300847C00EF25F0FDEC3EFC7F821202FAE542
:1000A3003675F00A8475F010A4FFAEF0E53675F0EE
:1000B3000A847C00EF25F0FDEC3EFC7F801202FAFF
:1000C300E53775F00A8475F010A4FFAEF0E53775D7
:1000D300F00A847C00EF25F0FDEC3EFC7F8A1202DF
:0A00E300FA7D807C007F8E0202FA95
:10020D007F8C1203A4EFC4540F75F00AA4FEEF54B3
:10021D000F2EF5317F881203A4EFC4540F75F00A29
:10022D00A4FEEF540F2EF5327F861203A4EFC454B3
:10023D000F75F00AA4FEEF540F2EF5337F841203D1
:10024D00A4EFC4540FF533EF540FF52C7F82120336
:10025D00A4EFC4540FF535EF540FF52E7F80120324
:10026D00A4EFC4540FF536EF540FF52F7F8A120308
:10027D00A4EFC4540F75F00AA4FEEF540F2EF537FA
:01028D00224E
:10057C00EF1FAC0670011E4C600A7D027CEFDCFEA6
:04058C00DDFC80EC26
:010590002248
:1004AF00202208003F0006005B004F0066006D0031
:1004BF007D0007007F006F0077007C0039005E0031
:0504CF0079007100003E
:10028E00EF14B4080050549002A375F003A4C58374
:10029E0025F0C583730202E30202DB0202D30202DF
:1002AE00CB0202C70202C30202BF0202BBC2A4807B
:1002BE000EC2A48012C2A48016C2A4801AD2A4C2F6
:1002CE00A3C2A28016D2A4C2A3D2A2800ED2A4D25E
:1002DE00A3C2A28006D2A4D2A3D2A2ED25E0240806
:0602EE00F808E6F580228D
:0300000002018179
:0C018100787FE4F6D8FD7581560201C8B5
:1000ED00BB010CE58229F582E5833AF583E02250C8
:1000FD0006E92582F8E622BBFE06E92582F8E22212
:0D010D00E58229F582E5833AF583E493222B
:10011A00EF8DF0A4A8F0CF8CF0A428CE8DF0A42EF9
:02012A00FE22B3
:10012C00BC000BBE0029EF8DF084FFADF022E4CCB7
:10013C00F875F008EF2FFFEE33FEEC33FCEE9DEC80
:10014C00984005FCEE9DFE0FD5F0E9E4CEFD22EDC6
:10015C00F8F5F0EE8420D21CFEADF075F008EF2F10
:10016C00FFED33FD4007985006D5F0F222C398FD01
:05017C000FD5F0EA229E
:10018D00020351E493A3F8E493A34003F68001F234
:10019D0008DFF48029E493A3F85407240CC8C33373
:1001AD00C4540F4420C8834004F456800146F6DF42
:1001BD00E4800B010204081020408090049DE47E31
:1001CD00019360BCA3FF543F30E509541FFEE49337
:1001DD00A360010ECF54C025E060A840B8E493A3FE
:1001ED00FAE493A3F8E493A3C8C582C8CAC583CA29
:1001FD00F0A3C8C582C8CAC583CADFE9DEE780BEE1
:0104D4000027
:00000001FF
