:10029500100A000000010002001C00F40054005C7C
:0202A50000FF58
:10027E005389F0438901E4F58A758CB8C28DD28C0E
:07028E00D2A9D2AFC2B922D0
:03000B0002000EE2
:10000E00C0E0C0F0C083C082C0D075D000C000C0B8
:0D001E0001C002C003C004C005C006C00739
:10002B00758A00758CB80509E50970020508C3943B
:10003B0032E508940050030200D5750800750900DD
:10004B00AD0BAC0AE4FFFE12024A7F027E001202E5
:10005B00647F011202447F027E001202647F02124F
:10006B0002447F027E00120264AD0BAC0A7F037E5A
:10007B000012024A7F027E00120264AD19AC187F97
:10008B00047E0012024A7F027E00120264AD0BACAA
:10009B000A7F057E0012024A7F027E00120264ADC7
:1000AB000BAC0A7F067E0012024A7F027E00120210
:1000BB0064AD0BAC0A7F077E0012024A7F027E0002
:0A00CB00120264C2B6C2B502004B77
:1000D500D007D006D005D004D003D002D001D0007F
:0B00E500D0D0D082D083D0F0D0E03229
:04021500AB07AA0683
:10021900E4FD74807E00A805088006CEA2E713CE0F
:1002290013D8F8FFEE5AFEEF5B4E24FF92B4D2B614
:0A023900C2B60DBD08DCD2B5C2B597
:010243002298
:06024400AD0BAC0A7E00C8
:10024A008F82AF05AE04120215AF827480A8070828
:0A025A008002C313D8FCF4F58022E3
:1000F00012027EAD0BAC0AE4FFFE12024A7F027EC2
:1001000000120264AD0DAC0C7F017E0012024A7F2A
:10011000027E00120264AD0FAC0E7F027E0012025E
:100120004A7F027E00120264AD11AC107F037E0094
:1001300012024A7F027E00120264AD13AC127F04E9
:100140007E0012024A7F027E00120264AD15AC14DA
:100150007F057E0012024A7F027E00120264AD1704
:10016000AC167F067E0012024A7F027E00120264F5
:10017000AD0BAC0A7F077E0012024A7F027E00129E
:090180000264C2B6C2B50200F32C
:0A026400EF1FAC0670011E4C600F86
:0D026E0000751C02751DC7D51DFDD51CFABD
:03027B0080E722F7
:0300000002018971
:0C018900787FE4F6D8FD75811D0201D0DE
:100195000200F0E493A3F8E493A34003F68001F290
:1001A50008DFF48029E493A3F85407240CC8C3336B
:1001B500C4540F4420C8834004F456800146F6DF3A
:1001C500E4800B0102040810204080900295E47E33
:1001D500019360BCA3FF543F30E509541FFEE4932F
:1001E500A360010ECF54C025E060A840B8E493A3F6
:1001F500FAE493A3F8E493A3C8C582C8CAC583CA21
:10020500F0A3C8C582C8CAC583CADFE9DEE780BED8
:0102A7000056
:00000001FF
