:10012900202208003F0006005B004F0066006D00BA
:100139007D0007007F006F0077007C0039005E00BA
:050149007900710000C7
:10008F00EF14B4080050549000A475F003A4C58376
:10009F0025F0C583730200E40200DC0200D40200E5
:1000AF00CC0200C80200C40200C00200BCC2A4807F
:1000BF000EC2A48012C2A48016C2A4801AD2A4C2F7
:1000CF00A3C2A28016D2A4C2A3D2A2800ED2A4D25F
:1000DF00A3C2A28006D2A4D2A3D2A2ED25E0240807
:0600EF00F808E6F580228E
:1000F500E4F52AF52BD3E52A6480948A50F77FF43A
:100105007E0112014FE52AFD3395E0FCAF2B12006D
:100115008F7FF47E0112014F052AE52AB40AD6E441
:04012500F52A80D166
:0A014F00EF1FAC0670011E4C600F9C
:0D01590000752C02752DC7D52DFDD52CFA93
:0301660080E7220D
:03000000020003F8
:0C000300787FE4F6D8FD75812D02004ADC
:10000F000200F5E493A3F8E493A34003F68001F212
:10001F0008DFF48029E493A3F85407240CC8C333F2
:10002F00C4540F4420C8834004F456800146F6DFC1
:10003F00E4800B0102040810204080900129E47E27
:10004F00019360BCA3FF543F30E509541FFEE493B6
:10005F00A360010ECF54C025E060A840B8E493A37D
:10006F00FAE493A3F8E493A3C8C582C8CAC583CAA8
:10007F00F0A3C8C582C8CAC583CADFE9DEE780BE60
:01014E0000B0
:00000001FF
