:0C022E00022C000202300000022E000032
:10027A005389F0438901758A66758CFCC28DD28CCC
:07028A00D2A9D2AFC2B922D4
:03000B0002009A56
:04009A00C0E0C0D032
:10009E00758A66758CFC052BE52B7002052AC394B8
:1000AE00E8E52A94034063752A00752B00E52D15AB
:1000BE002D7002152CE52DF47003E52CF4704BF524
:1000CE002C752D09E531153170021530E531B4FF6F
:1000DE0039E530B4FF34753000753100E52F152F3A
:1000EE007002152EE52FB4FF21E52EB4FF1CE52D71
:1000FE006409452C7014E5314530700EF52C752DC4
:0A010E0004F530753102F52EF52FCF
:05011800D0D0D0E03260
:1001E4007F037E001202607F037E00120260AD3145
:1001F400AC307F0712011D7F037E00120260AD2D1B
:10020400AC2C7F0812011D120183EF24FE600B1435
:100214006013240270CAB2A980C6E4F52CF52DF54A
:0A02240030F53180BB12027A80B67B
:0A026000EF1FAC0670011E4C600F8A
:0D026A00007533027534C7D534FDD533FA65
:0302770080E722FB
:10023A00202208003F0006005B004F0066006D00A8
:10024A007D0007007F006F0077007C0039005E00A8
:05025A007900710000B5
:10011D00EF14B40800505490013275F003A4C58358
:10012D0025F0C5837302017202016A0201620201A8
:10013D005A02015602015202014E02014AC2A48026
:10014D000EC2A48012C2A48016C2A4801AD2A4C268
:10015D00A3C2A28016D2A4C2A3D2A2800ED2A4D2D0
:10016D00A3C2A28006D2A4D2A3D2A2ED25E0240878
:06017D00F808E6F58022FF
:10018300E4F53220B1137F14FE12026030B1FD7F1B
:10019300147E0012026075320120B0147F147E00B9
:1001A30012026030B0FD7F147E00120260753202CD
:1001B30020B2147F147E0012026030B2FD7F147EE1
:1001C3000012026075320320B3147F147E00120202
:1001D3006030B3FD7F147E00120260753204AF32CB
:0101E30022F9
:0300000002000EED
:0C000E00787FE4F6D8FD758134020055BF
:10001A000201E4E493A3F8E493A34003F68001F217
:10002A0008DFF48029E493A3F85407240CC8C333E7
:10003A00C4540F4420C8834004F456800146F6DFB6
:10004A00E4800B010204081020408090022EE47E16
:10005A00019360BCA3FF543F30E509541FFEE493AB
:10006A00A360010ECF54C025E060A840B8E493A372
:10007A00FAE493A3F8E493A3C8C582C8CAC583CA9D
:10008A00F0A3C8C582C8CAC583CADFE9DEE780BE55
:01025F00009E
:00000001FF
