:09014C00012C02012E01012D001D
:10017B001201BEE52DFD3395E0FC7F0512009AE5DB
:10018B002EFD3395E0FC7F0612009AE52CFD33958E
:09019B00E0FC7F0712009A80DAF3
:03000B0002010AE5
:04010A00C0E0C0D0C1
:10010E00758A18758CFC052BE52B7002052AC39495
:10011E00E8E52A94034022752A00752B00152CE57C
:10012E002CB4FF15752C09152EE52EB4FF0BE52CFE
:09013E00B40906752E02752C04AB
:05014700D0D0D0E03231
:0A01A400EF1FAC0670011E4C600F47
:0D01AE0000752F027530C7D530FDD52FFA32
:0301BB0080E722B8
:10015500202208003F0006005B004F0066006D008E
:100165007D0007007F006F0077007C0039005E008E
:0501750079007100009B
:10009A00EF14B4080050549000AF75F003A4C58360
:1000AA0025F0C583730200EF0200E70200DF0200B9
:1000BA00D70200D30200CF0200CB0200C7C2A4803D
:1000CA000EC2A48012C2A48016C2A4801AD2A4C2EC
:1000DA00A3C2A28016D2A4C2A3D2A2800ED2A4D254
:1000EA00A3C2A28006D2A4D2A3D2A2ED25E02408FC
:1000FA00F808E6F5807F017E001201A4E4F580226B
:1001BE005389F0438901758A18758CFCC28DD28CD7
:0701CE00D2A9D2AFC2B92291
:0300000002000EED
:0C000E00787FE4F6D8FD758130020055C3
:10001A0002017BE493A3F8E493A34003F68001F280
:10002A0008DFF48029E493A3F85407240CC8C333E7
:10003A00C4540F4420C8834004F456800146F6DFB6
:10004A00E4800B010204081020408090014CE47EF9
:10005A00019360BCA3FF543F30E509541FFEE493AB
:10006A00A360010ECF54C025E060A840B8E493A372
:10007A00FAE493A3F8E493A3C8C582C8CAC583CA9D
:10008A00F0A3C8C582C8CAC583CADFE9DEE780BE55
:01017A000084
:00000001FF
