:1001980012020A750C087B0B7A007D017F011200A0
:1001A800D1750C087B097A007D017F0212010A8053
:0101B800DF67
:06021E00C2A58F80D2A7EB
:080224007F027EEFDEFEDFFC2D
:01022C0022AF
:0A023900C2A612021EC2A702022490
:1001B900CFCDCFCECCCE1200427C007D0A120042B8
:0401C900ED2430FFF2
:0A01CD00D2A612021EC2A7020224ED
:1001F400AE07BE0104ED148006BE0209ED243F449F
:0602040080FF1202392206
:10020A007F381202397F0C1202397F061202397FB7
:04021A0001020239A2
:0A024300AC031201F4AF040201CD78
:060175008B1D8A1E891F8C
:10017B001201F4E4FDAB1DAA1EA91F8D827583002D
:0C018B00120003FF60061201CD0D80E998
:010197002245
:0C0142007F0AEA24FFFDE434FFFC7E008D
:08014E008E0D8F0E8C0F8D1039
:100156007F017E00E4FBEBC39510E50F6480F87425
:0E0166008098500AAC0DAD0E1200300B80E8F0
:010174002268
:0401D7008A1A8B1BDA
:1001DB001201F4AA1CEAD39400400D120142AC1A8E
:0801EB00AD1B1201B91A80EDF1
:0101F30022E9
:100097001201F4C3EA64809480400B7F2B1201CDD8
:1000A7008A168B17800E7F2D1201CDC3E49BF5179F
:1000B700E49AF516AA15EAD39400400D120142AC52
:0900C70016AD171201B91A80ED03
:0100D000220D
:0400D1008A0A8B0B01
:1000D5001201F4AA0CEAD3940040297F10120144BE
:1000E500AC0AAD0BCFCDCFCECCCE120042EF540F24
:1000F500FEC3940AEE5004243080022437FF120117
:04010500CD1A80D1BE
:0101090022D3
:04010A008A0A8B0BC7
:10010E001201F4AA0CEAD394004028EA24FFFDE47D
:10011E0034FFFC7F027E0012014EAC0AAD0BCFCD38
:10012E00CFCECCCE120042EF54012430FF1201CDBF
:03013E001A80D252
:01014100229B
:0300000002022DCC
:0C022D00787FE4F6D8FD75811F0201986F
:10000300BB010CE58229F582E5833AF583E02250B2
:1000130006E92582F8E622BBFE06E92582F8E222FC
:0D002300E58229F582E5833AF583E4932216
:10003000EF8DF0A4A8F0CF8CF0A428CE8DF0A42EE4
:02004000FE229E
:10004200BC000BBE0029EF8DF084FFADF022E4CCA2
:10005200F875F008EF2FFFEE33FEEC33FCEE9DEC6B
:10006200984005FCEE9DFE0FD5F0E9E4CEFD22EDB1
:10007200F8F5F0EE8420D21CFEADF075F008EF2FFB
:10008200FFED33FD4007985006D5F0F222C398FDEC
:050092000FD5F0EA2289
:00000001FF
