:0C01B800022C000202300000022E0000A9
:100204005389F0438901758A66758CFCC28DD28C42
:07021400D2A9D2AFC2B9224A
:03000B0002009A56
:04009A00C0E0C0D032
:10009E00758A66758CFC052BE52B7002052AC394B8
:1000AE00E8E52A94034063752A00752B00E52D15AB
:1000BE002D7002152CE52DF47003E52CF4704BF524
:1000CE002C752D09E531153170021530E531B4FF6F
:1000DE0039E530B4FF34753000753100E52F152F3A
:1000EE007002152EE52FB4FF21E52EB4FF1CE52D71
:1000FE006409452C7014E5314530700EF52C752DC4
:0A010E0004F530753102F52EF52FCF
:05011800D0D0D0E03260
:100183001202047F037E001201EAAD2FAC2E7F041E
:1001930012011D7F037E001201EAAD31AC307F05F1
:1001A30012011D7F037E001201EAAD2DAC2C7F06E8
:0501B30012011D80CEC9
:0A01EA00EF1FAC0670011E4C600F01
:0D01F400007532027533C7D533FDD532FAE0
:0302010080E72271
:1001C400202208003F0006005B004F0066006D001F
:1001D4007D0007007F006F0077007C0039005E001F
:0501E40079007100002C
:10011D00EF14B40800505490013275F003A4C58358
:10012D0025F0C5837302017202016A0201620201A8
:10013D005A02015602015202014E02014AC2A48026
:10014D000EC2A48012C2A48016C2A4801AD2A4C268
:10015D00A3C2A28016D2A4C2A3D2A2800ED2A4D2D0
:10016D00A3C2A28006D2A4D2A3D2A2ED25E0240878
:06017D00F808E6F58022FF
:0300000002000EED
:0C000E00787FE4F6D8FD758133020055C0
:10001A00020183E493A3F8E493A34003F68001F278
:10002A0008DFF48029E493A3F85407240CC8C333E7
:10003A00C4540F4420C8834004F456800146F6DFB6
:10004A00E4800B01020408102040809001B8E47E8D
:10005A00019360BCA3FF543F30E509541FFEE493AB
:10006A00A360010ECF54C025E060A840B8E493A372
:10007A00FAE493A3F8E493A3C8C582C8CAC583CA9D
:10008A00F0A3C8C582C8CAC583CADFE9DEE780BE55
:0101E9000015
:00000001FF
